{
  "contractName": "FarmingContract",
  "abi": [
    {
      "inputs": [
        {
          "internalType": "address",
          "name": "_lpToken",
          "type": "address"
        },
        {
          "internalType": "address",
          "name": "_rewardToken",
          "type": "address"
        },
        {
          "internalType": "address",
          "name": "_stakingToken",
          "type": "address"
        },
        {
          "internalType": "address",
          "name": "_uniswapRouter",
          "type": "address"
        },
        {
          "internalType": "uint256",
          "name": "_rewardRate",
          "type": "uint256"
        }
      ],
      "stateMutability": "nonpayable",
      "type": "constructor"
    },
    {
      "inputs": [],
      "name": "lastUpdateBlock",
      "outputs": [
        {
          "internalType": "uint256",
          "name": "",
          "type": "uint256"
        }
      ],
      "stateMutability": "view",
      "type": "function"
    },
    {
      "inputs": [],
      "name": "lpToken",
      "outputs": [
        {
          "internalType": "contract IERC20",
          "name": "",
          "type": "address"
        }
      ],
      "stateMutability": "view",
      "type": "function"
    },
    {
      "inputs": [],
      "name": "rewardPerTokenStored",
      "outputs": [
        {
          "internalType": "uint256",
          "name": "",
          "type": "uint256"
        }
      ],
      "stateMutability": "view",
      "type": "function"
    },
    {
      "inputs": [],
      "name": "rewardRate",
      "outputs": [
        {
          "internalType": "uint256",
          "name": "",
          "type": "uint256"
        }
      ],
      "stateMutability": "view",
      "type": "function"
    },
    {
      "inputs": [],
      "name": "rewardToken",
      "outputs": [
        {
          "internalType": "contract IERC20",
          "name": "",
          "type": "address"
        }
      ],
      "stateMutability": "view",
      "type": "function"
    },
    {
      "inputs": [],
      "name": "stakingToken",
      "outputs": [
        {
          "internalType": "contract IERC20",
          "name": "",
          "type": "address"
        }
      ],
      "stateMutability": "view",
      "type": "function"
    },
    {
      "inputs": [],
      "name": "totalStaked",
      "outputs": [
        {
          "internalType": "uint256",
          "name": "",
          "type": "uint256"
        }
      ],
      "stateMutability": "view",
      "type": "function"
    },
    {
      "inputs": [],
      "name": "uniswapPair",
      "outputs": [
        {
          "internalType": "address",
          "name": "",
          "type": "address"
        }
      ],
      "stateMutability": "view",
      "type": "function"
    },
    {
      "inputs": [],
      "name": "uniswapRouter",
      "outputs": [
        {
          "internalType": "contract ISherpaswapV2Router02",
          "name": "",
          "type": "address"
        }
      ],
      "stateMutability": "view",
      "type": "function"
    },
    {
      "inputs": [
        {
          "internalType": "address",
          "name": "",
          "type": "address"
        }
      ],
      "name": "userRewardPerTokenPaid",
      "outputs": [
        {
          "internalType": "uint256",
          "name": "",
          "type": "uint256"
        }
      ],
      "stateMutability": "view",
      "type": "function"
    },
    {
      "inputs": [
        {
          "internalType": "address",
          "name": "",
          "type": "address"
        }
      ],
      "name": "userRewards",
      "outputs": [
        {
          "internalType": "uint256",
          "name": "",
          "type": "uint256"
        }
      ],
      "stateMutability": "view",
      "type": "function"
    },
    {
      "inputs": [
        {
          "internalType": "address",
          "name": "",
          "type": "address"
        }
      ],
      "name": "userStaked",
      "outputs": [
        {
          "internalType": "uint256",
          "name": "",
          "type": "uint256"
        }
      ],
      "stateMutability": "view",
      "type": "function"
    },
    {
      "inputs": [],
      "name": "rewardPerToken",
      "outputs": [
        {
          "internalType": "uint256",
          "name": "",
          "type": "uint256"
        }
      ],
      "stateMutability": "view",
      "type": "function"
    },
    {
      "inputs": [
        {
          "internalType": "address",
          "name": "account",
          "type": "address"
        }
      ],
      "name": "earned",
      "outputs": [
        {
          "internalType": "uint256",
          "name": "",
          "type": "uint256"
        }
      ],
      "stateMutability": "view",
      "type": "function"
    },
    {
      "inputs": [
        {
          "internalType": "uint256",
          "name": "amount",
          "type": "uint256"
        }
      ],
      "name": "stake",
      "outputs": [],
      "stateMutability": "nonpayable",
      "type": "function"
    },
    {
      "inputs": [
        {
          "internalType": "uint256",
          "name": "amount",
          "type": "uint256"
        }
      ],
      "name": "withdraw",
      "outputs": [],
      "stateMutability": "nonpayable",
      "type": "function"
    },
    {
      "inputs": [],
      "name": "claimReward",
      "outputs": [],
      "stateMutability": "nonpayable",
      "type": "function"
    },
    {
      "inputs": [
        {
          "internalType": "uint256",
          "name": "tokenAmount",
          "type": "uint256"
        },
        {
          "internalType": "uint256",
          "name": "rewardTokenAmount",
          "type": "uint256"
        }
      ],
      "name": "addLiquidity",
      "outputs": [],
      "stateMutability": "nonpayable",
      "type": "function"
    },
    {
      "inputs": [
        {
          "internalType": "uint256",
          "name": "liquidity",
          "type": "uint256"
        }
      ],
      "name": "removeLiquidity",
      "outputs": [],
      "stateMutability": "nonpayable",
      "type": "function"
    }
  ],
  "bytecode": "0x608060405234801561001057600080fd5b50604051610d04380380610d04833981810160405260a081101561003357600080fd5b5080516020808301516040808501516060860151608090960151600080546001600160a01b03199081166001600160a01b03808a1691909117835560018054831682891617905560028054831682871617905560038054909216818b161791829055600584905543600655855163c45a015560e01b815295519899969894979395929491169263c45a01559260048082019391829003018186803b1580156100da57600080fd5b505afa1580156100ee573d6000803e3d6000fd5b505050506040513d602081101561010457600080fd5b5051600254600154604080516364e329cb60e11b81526001600160a01b0393841660048201529183166024830152519293509083169163c9c65396916044808201926020929091908290030181600087803b15801561016257600080fd5b505af1158015610176573d6000803e3d6000fd5b505050506040513d602081101561018c57600080fd5b5051600480546001600160a01b039092166001600160a01b0319909216919091179055505050505050610b40806101c46000396000f3fe608060405234801561001057600080fd5b50600436106101205760003560e01c80639c8f9f23116100ad578063b88a802f11610071578063b88a802f14610297578063c816841b1461029f578063cd3daf9d146102a7578063df136d65146102af578063f7c618c1146102b757610120565b80639c8f9f231461020c5780639cd441da14610229578063a218141b1461024c578063a694fc3a14610254578063acc3a9391461027157610120565b806372f702f3116100f457806372f702f3146101c6578063735de9f7146101ce5780637b0a47ee146101d6578063817b1cd2146101de5780638b876347146101e657610120565b80628cc262146101255780630660f1e81461015d5780632e1a7d4d146101835780635fcbd285146101a2575b600080fd5b61014b6004803603602081101561013b57600080fd5b50356001600160a01b03166102bf565b60408051918252519081900360200190f35b61014b6004803603602081101561017357600080fd5b50356001600160a01b0316610321565b6101a06004803603602081101561019957600080fd5b5035610333565b005b6101aa610428565b604080516001600160a01b039092168252519081900360200190f35b6101aa610437565b6101aa610446565b61014b610455565b61014b61045b565b61014b600480360360208110156101fc57600080fd5b50356001600160a01b0316610461565b6101a06004803603602081101561022257600080fd5b5035610473565b6101a06004803603604081101561023f57600080fd5b508035906020013561062c565b61014b6108f4565b6101a06004803603602081101561026a57600080fd5b50356108fa565b61014b6004803603602081101561028757600080fd5b50356001600160a01b03166109c3565b6101a06109d5565b6101aa610aa8565b61014b610ab7565b61014b610af5565b6101aa610afb565b6001600160a01b038116600090815260086020908152604080832054600a909252822054670de0b6b3a7640000906102f5610ab7565b6001600160a01b038616600090815260096020526040902054919003028161031957fe5b040192915050565b60086020526000908152604090205481565b3361033c610ab7565b600755436006556001600160a01b038116156103875761035b816102bf565b6001600160a01b038216600090815260086020908152604080832093909355600754600a909152919020555b600b80548390039055336000818152600960209081526040808320805487900390558254815163a9059cbb60e01b815260048101959095526024850187905290516001600160a01b039091169363a9059cbb9360448083019493928390030190829087803b1580156103f857600080fd5b505af115801561040c573d6000803e3d6000fd5b505050506040513d602081101561042257600080fd5b50505050565b6000546001600160a01b031681565b6002546001600160a01b031681565b6003546001600160a01b031681565b60055481565b600b5481565b600a6020526000908152604090205481565b60048054604080516323b872dd60e01b8152339381019390935230602484015260448301849052516001600160a01b03909116916323b872dd9160648083019260209291908290030181600087803b1580156104ce57600080fd5b505af11580156104e2573d6000803e3d6000fd5b505050506040513d60208110156104f857600080fd5b5050600480546003546040805163095ea7b360e01b81526001600160a01b0392831694810194909452602484018590525191169163095ea7b39160448083019260209291908290030181600087803b15801561055357600080fd5b505af1158015610567573d6000803e3d6000fd5b505050506040513d602081101561057d57600080fd5b505060035460025460015460408051635d5155ef60e11b81526001600160a01b039384166004820152918316602483015260448201859052600060648301819052608483018190523360a48401524260c48401528151939094169363baa2abde9360e4808501949192918390030190829087803b1580156105fd57600080fd5b505af1158015610611573d6000803e3d6000fd5b505050506040513d604081101561062757600080fd5b505050565b600254604080516323b872dd60e01b81523360048201523060248201526044810185905290516001600160a01b03909216916323b872dd916064808201926020929091908290030181600087803b15801561068657600080fd5b505af115801561069a573d6000803e3d6000fd5b505050506040513d60208110156106b057600080fd5b5050600154604080516323b872dd60e01b81523360048201523060248201526044810184905290516001600160a01b03909216916323b872dd916064808201926020929091908290030181600087803b15801561070c57600080fd5b505af1158015610720573d6000803e3d6000fd5b505050506040513d602081101561073657600080fd5b50506002546003546040805163095ea7b360e01b81526001600160a01b039283166004820152602481018690529051919092169163095ea7b39160448083019260209291908290030181600087803b15801561079157600080fd5b505af11580156107a5573d6000803e3d6000fd5b505050506040513d60208110156107bb57600080fd5b50506001546003546040805163095ea7b360e01b81526001600160a01b039283166004820152602481018590529051919092169163095ea7b39160448083019260209291908290030181600087803b15801561081657600080fd5b505af115801561082a573d6000803e3d6000fd5b505050506040513d602081101561084057600080fd5b50506003546002546001546040805162e8e33760e81b81526001600160a01b0393841660048201529183166024830152604482018690526064820185905260006084830181905260a483018190523360c48401524260e48401529051929093169263e8e3370092610104808401936060939083900390910190829087803b1580156108ca57600080fd5b505af11580156108de573d6000803e3d6000fd5b505050506040513d606081101561042257600080fd5b60065481565b33610903610ab7565b600755436006556001600160a01b0381161561094e57610922816102bf565b6001600160a01b038216600090815260086020908152604080832093909355600754600a909152919020555b600b805483019055336000818152600960209081526040808320805487019055825481516323b872dd60e01b815260048101959095523060248601526044850187905290516001600160a01b03909116936323b872dd9360648083019493928390030190829087803b1580156103f857600080fd5b60096020526000908152604090205481565b336109de610ab7565b600755436006556001600160a01b03811615610a29576109fd816102bf565b6001600160a01b038216600090815260086020908152604080832093909355600754600a909152919020555b336000908152600860205260409020548015610aa457336000818152600860209081526040808320839055600154815163a9059cbb60e01b815260048101959095526024850186905290516001600160a01b039091169363a9059cbb9360448083019493928390030190829087803b1580156103f857600080fd5b5050565b6004546001600160a01b031681565b6000600b5460001415610acd5750600754610af2565b600b54600554600654430302670de0b6b3a76400000281610aea57fe5b046007540190505b90565b60075481565b6001546001600160a01b03168156fea26469706673582212209dda98bcb7789146ac0812e0bae1a9ddaeebaad8e0f8c22a7f5d580b939dce5e64736f6c63430006060033",
  "immutableReferences": {},
  "source": "// SPDX-License-Identifier: MIT\r\npragma solidity =0.6.6;\r\n\r\n// need\r\ninterface ISherpaswapV2Factory {\r\n    event PairCreated(address indexed token0, address indexed token1, address pair, uint);\r\n\r\n    function feeTo() external view returns (address);\r\n    function feeToSetter() external view returns (address);\r\n\r\n    function getPair(address tokenA, address tokenB) external view returns (address pair);\r\n    function allPairs(uint) external view returns (address pair);\r\n    function allPairsLength() external view returns (uint);\r\n\r\n    function createPair(address tokenA, address tokenB) external returns (address pair);\r\n\r\n    function setFeeTo(address) external;\r\n    function setFeeToSetter(address) external;\r\n}\r\n\r\ninterface ISherpaswapV2Pair {\r\n    event Approval(address indexed owner, address indexed spender, uint value);\r\n    event Transfer(address indexed from, address indexed to, uint value);\r\n\r\n    function name() external pure returns (string memory);\r\n    function symbol() external pure returns (string memory);\r\n    function decimals() external pure returns (uint8);\r\n    function totalSupply() external view returns (uint);\r\n    function balanceOf(address owner) external view returns (uint);\r\n    function allowance(address owner, address spender) external view returns (uint);\r\n\r\n    function approve(address spender, uint value) external returns (bool);\r\n    function transfer(address to, uint value) external returns (bool);\r\n    function transferFrom(address from, address to, uint value) external returns (bool);\r\n\r\n    function DOMAIN_SEPARATOR() external view returns (bytes32);\r\n    function PERMIT_TYPEHASH() external pure returns (bytes32);\r\n    function nonces(address owner) external view returns (uint);\r\n\r\n    function permit(address owner, address spender, uint value, uint deadline, uint8 v, bytes32 r, bytes32 s) external;\r\n\r\n    event Mint(address indexed sender, uint amount0, uint amount1);\r\n    event Burn(address indexed sender, uint amount0, uint amount1, address indexed to);\r\n    event Swap(\r\n        address indexed sender,\r\n        uint amount0In,\r\n        uint amount1In,\r\n        uint amount0Out,\r\n        uint amount1Out,\r\n        address indexed to\r\n    );\r\n    event Sync(uint112 reserve0, uint112 reserve1);\r\n\r\n    function MINIMUM_LIQUIDITY() external pure returns (uint);\r\n    function factory() external view returns (address);\r\n    function token0() external view returns (address);\r\n    function token1() external view returns (address);\r\n    function getReserves() external view returns (uint112 reserve0, uint112 reserve1, uint32 blockTimestampLast);\r\n    function price0CumulativeLast() external view returns (uint);\r\n    function price1CumulativeLast() external view returns (uint);\r\n    function kLast() external view returns (uint);\r\n\r\n    function mint(address to) external returns (uint liquidity);\r\n    function burn(address to) external returns (uint amount0, uint amount1);\r\n    function swap(uint amount0Out, uint amount1Out, address to, bytes calldata data) external;\r\n    function skim(address to) external;\r\n    function sync() external;\r\n\r\n    function initialize(address, address) external;\r\n}\r\n\r\ninterface ISherpaswapV2Router01 {\r\n    function factory() external pure returns (address);\r\n    function WETH() external pure returns (address);\r\n\r\n    function addLiquidity(\r\n        address tokenA,\r\n        address tokenB,\r\n        uint amountADesired,\r\n        uint amountBDesired,\r\n        uint amountAMin,\r\n        uint amountBMin,\r\n        address to,\r\n        uint deadline\r\n    ) external returns (uint amountA, uint amountB, uint liquidity);\r\n    function addLiquidityETH(\r\n        address token,\r\n        uint amountTokenDesired,\r\n        uint amountTokenMin,\r\n        uint amountETHMin,\r\n        address to,\r\n        uint deadline\r\n    ) external payable returns (uint amountToken, uint amountETH, uint liquidity);\r\n    function removeLiquidity(\r\n        address tokenA,\r\n        address tokenB,\r\n        uint liquidity,\r\n        uint amountAMin,\r\n        uint amountBMin,\r\n        address to,\r\n        uint deadline\r\n    ) external returns (uint amountA, uint amountB);\r\n    function removeLiquidityETH(\r\n        address token,\r\n        uint liquidity,\r\n        uint amountTokenMin,\r\n        uint amountETHMin,\r\n        address to,\r\n        uint deadline\r\n    ) external returns (uint amountToken, uint amountETH);\r\n    function removeLiquidityWithPermit(\r\n        address tokenA,\r\n        address tokenB,\r\n        uint liquidity,\r\n        uint amountAMin,\r\n        uint amountBMin,\r\n        address to,\r\n        uint deadline,\r\n        bool approveMax, uint8 v, bytes32 r, bytes32 s\r\n    ) external returns (uint amountA, uint amountB);\r\n    function removeLiquidityETHWithPermit(\r\n        address token,\r\n        uint liquidity,\r\n        uint amountTokenMin,\r\n        uint amountETHMin,\r\n        address to,\r\n        uint deadline,\r\n        bool approveMax, uint8 v, bytes32 r, bytes32 s\r\n    ) external returns (uint amountToken, uint amountETH);\r\n    function swapExactTokensForTokens(\r\n        uint amountIn,\r\n        uint amountOutMin,\r\n        address[] calldata path,\r\n        address to,\r\n        uint deadline\r\n    ) external returns (uint[] memory amounts);\r\n    function swapTokensForExactTokens(\r\n        uint amountOut,\r\n        uint amountInMax,\r\n        address[] calldata path,\r\n        address to,\r\n        uint deadline\r\n    ) external returns (uint[] memory amounts);\r\n    function swapExactETHForTokens(uint amountOutMin, address[] calldata path, address to, uint deadline)\r\n        external\r\n        payable\r\n        returns (uint[] memory amounts);\r\n    function swapTokensForExactETH(uint amountOut, uint amountInMax, address[] calldata path, address to, uint deadline)\r\n        external\r\n        returns (uint[] memory amounts);\r\n    function swapExactTokensForETH(uint amountIn, uint amountOutMin, address[] calldata path, address to, uint deadline)\r\n        external\r\n        returns (uint[] memory amounts);\r\n    function swapETHForExactTokens(uint amountOut, address[] calldata path, address to, uint deadline)\r\n        external\r\n        payable\r\n        returns (uint[] memory amounts);\r\n\r\n    function quote(uint amountA, uint reserveA, uint reserveB) external pure returns (uint amountB);\r\n    function getAmountOut(uint amountIn, uint reserveIn, uint reserveOut) external pure returns (uint amountOut);\r\n    function getAmountIn(uint amountOut, uint reserveIn, uint reserveOut) external pure returns (uint amountIn);\r\n    function getAmountsOut(uint amountIn, address[] calldata path) external view returns (uint[] memory amounts);\r\n    function getAmountsIn(uint amountOut, address[] calldata path) external view returns (uint[] memory amounts);\r\n}\r\n\r\n// need\r\ninterface ISherpaswapV2Router02 is ISherpaswapV2Router01 {\r\n    function removeLiquidityETHSupportingFeeOnTransferTokens(\r\n        address token,\r\n        uint liquidity,\r\n        uint amountTokenMin,\r\n        uint amountETHMin,\r\n        address to,\r\n        uint deadline\r\n    ) external returns (uint amountETH);\r\n    function removeLiquidityETHWithPermitSupportingFeeOnTransferTokens(\r\n        address token,\r\n        uint liquidity,\r\n        uint amountTokenMin,\r\n        uint amountETHMin,\r\n        address to,\r\n        uint deadline,\r\n        bool approveMax, uint8 v, bytes32 r, bytes32 s\r\n    ) external returns (uint amountETH);\r\n\r\n    function swapExactTokensForTokensSupportingFeeOnTransferTokens(\r\n        uint amountIn,\r\n        uint amountOutMin,\r\n        address[] calldata path,\r\n        address to,\r\n        uint deadline\r\n    ) external;\r\n    function swapExactETHForTokensSupportingFeeOnTransferTokens(\r\n        uint amountOutMin,\r\n        address[] calldata path,\r\n        address to,\r\n        uint deadline\r\n    ) external payable;\r\n    function swapExactTokensForETHSupportingFeeOnTransferTokens(\r\n        uint amountIn,\r\n        uint amountOutMin,\r\n        address[] calldata path,\r\n        address to,\r\n        uint deadline\r\n    ) external;\r\n}\r\n\r\n// need\r\ninterface IERC20 {\r\n    event Approval(address indexed owner, address indexed spender, uint value);\r\n    event Transfer(address indexed from, address indexed to, uint value);\r\n\r\n    function name() external view returns (string memory);\r\n    function symbol() external view returns (string memory);\r\n    function decimals() external view returns (uint8);\r\n    function totalSupply() external view returns (uint);\r\n    function balanceOf(address owner) external view returns (uint);\r\n    function allowance(address owner, address spender) external view returns (uint);\r\n\r\n    function approve(address spender, uint value) external returns (bool);\r\n    function transfer(address to, uint value) external returns (bool);\r\n    function transferFrom(address from, address to, uint value) external returns (bool);\r\n}\r\n\r\ninterface IWETH {\r\n    function deposit() external payable;\r\n    function transfer(address to, uint value) external returns (bool);\r\n    function withdraw(uint) external;\r\n}\r\n\r\n// contract SherpaswapRouter is ISherpaswapV2Router02 {\r\n//     using SafeMath for uint;\r\n\r\n//     address public immutable override factory;\r\n//     address public immutable override WETH;\r\n\r\n//     modifier ensure(uint deadline) {\r\n//         require(deadline >= block.timestamp, 'SherpaswapV2Router: EXPIRED');\r\n//         _;\r\n//     }\r\n\r\n//     constructor(address _factory, address _WETH) public {\r\n//         factory = _factory;\r\n//         WETH = _WETH;\r\n//     }\r\n\r\n//     receive() external payable {\r\n//         assert(msg.sender == WETH); // only accept ETH via fallback from the WETH contract\r\n//     }\r\n\r\n//     // **** ADD LIQUIDITY ****\r\n//     function _addLiquidity(\r\n//         address tokenA,\r\n//         address tokenB,\r\n//         uint amountADesired,\r\n//         uint amountBDesired,\r\n//         uint amountAMin,\r\n//         uint amountBMin\r\n//     ) internal virtual returns (uint amountA, uint amountB) {\r\n//         // create the pair if it doesn't exist yet\r\n//         if (ISherpaswapV2Factory(factory).getPair(tokenA, tokenB) == address(0)) {\r\n//             ISherpaswapV2Factory(factory).createPair(tokenA, tokenB);\r\n//         }\r\n//         (uint reserveA, uint reserveB) = SherpaswapV2Library.getReserves(factory, tokenA, tokenB);\r\n//         if (reserveA == 0 && reserveB == 0) {\r\n//             (amountA, amountB) = (amountADesired, amountBDesired);\r\n//         } else {\r\n//             uint amountBOptimal = SherpaswapV2Library.quote(amountADesired, reserveA, reserveB);\r\n//             if (amountBOptimal <= amountBDesired) {\r\n//                 require(amountBOptimal >= amountBMin, 'SherpaswapV2Router: INSUFFICIENT_B_AMOUNT');\r\n//                 (amountA, amountB) = (amountADesired, amountBOptimal);\r\n//             } else {\r\n//                 uint amountAOptimal = SherpaswapV2Library.quote(amountBDesired, reserveB, reserveA);\r\n//                 assert(amountAOptimal <= amountADesired);\r\n//                 require(amountAOptimal >= amountAMin, 'SherpaswapV2Router: INSUFFICIENT_A_AMOUNT');\r\n//                 (amountA, amountB) = (amountAOptimal, amountBDesired);\r\n//             }\r\n//         }\r\n//     }\r\n//     function addLiquidity(\r\n//         address tokenA,\r\n//         address tokenB,\r\n//         uint amountADesired,\r\n//         uint amountBDesired,\r\n//         uint amountAMin,\r\n//         uint amountBMin,\r\n//         address to,\r\n//         uint deadline\r\n//     ) external virtual override ensure(deadline) returns (uint amountA, uint amountB, uint liquidity) {\r\n//         (amountA, amountB) = _addLiquidity(tokenA, tokenB, amountADesired, amountBDesired, amountAMin, amountBMin);\r\n//         address pair = SherpaswapV2Library.pairFor(factory, tokenA, tokenB);\r\n//         TransferHelper.safeTransferFrom(tokenA, msg.sender, pair, amountA);\r\n//         TransferHelper.safeTransferFrom(tokenB, msg.sender, pair, amountB);\r\n//         liquidity = ISherpaswapV2Pair(pair).mint(to);\r\n//     }\r\n//     function addLiquidityETH(\r\n//         address token,\r\n//         uint amountTokenDesired,\r\n//         uint amountTokenMin,\r\n//         uint amountETHMin,\r\n//         address to,\r\n//         uint deadline\r\n//     ) external virtual override payable ensure(deadline) returns (uint amountToken, uint amountETH, uint liquidity) {\r\n//         (amountToken, amountETH) = _addLiquidity(\r\n//             token,\r\n//             WETH,\r\n//             amountTokenDesired,\r\n//             msg.value,\r\n//             amountTokenMin,\r\n//             amountETHMin\r\n//         );\r\n//         address pair = SherpaswapV2Library.pairFor(factory, token, WETH);\r\n//         TransferHelper.safeTransferFrom(token, msg.sender, pair, amountToken);\r\n//         IWETH(WETH).deposit{value: amountETH}();\r\n//         assert(IWETH(WETH).transfer(pair, amountETH));\r\n//         liquidity = ISherpaswapV2Pair(pair).mint(to);\r\n//         // refund dust eth, if any\r\n//         if (msg.value > amountETH) TransferHelper.safeTransferETH(msg.sender, msg.value - amountETH);\r\n//     }\r\n\r\n//     // **** REMOVE LIQUIDITY ****\r\n//     function removeLiquidity(\r\n//         address tokenA,\r\n//         address tokenB,\r\n//         uint liquidity,\r\n//         uint amountAMin,\r\n//         uint amountBMin,\r\n//         address to,\r\n//         uint deadline\r\n//     ) public virtual override ensure(deadline) returns (uint amountA, uint amountB) {\r\n//         address pair = SherpaswapV2Library.pairFor(factory, tokenA, tokenB);\r\n//         ISherpaswapV2Pair(pair).transferFrom(msg.sender, pair, liquidity); // send liquidity to pair\r\n//         (uint amount0, uint amount1) = ISherpaswapV2Pair(pair).burn(to);\r\n//         (address token0,) = SherpaswapV2Library.sortTokens(tokenA, tokenB);\r\n//         (amountA, amountB) = tokenA == token0 ? (amount0, amount1) : (amount1, amount0);\r\n//         require(amountA >= amountAMin, 'SherpaswapV2Router: INSUFFICIENT_A_AMOUNT');\r\n//         require(amountB >= amountBMin, 'SherpaswapV2Router: INSUFFICIENT_B_AMOUNT');\r\n//     }\r\n//     function removeLiquidityETH(\r\n//         address token,\r\n//         uint liquidity,\r\n//         uint amountTokenMin,\r\n//         uint amountETHMin,\r\n//         address to,\r\n//         uint deadline\r\n//     ) public virtual override ensure(deadline) returns (uint amountToken, uint amountETH) {\r\n//         (amountToken, amountETH) = removeLiquidity(\r\n//             token,\r\n//             WETH,\r\n//             liquidity,\r\n//             amountTokenMin,\r\n//             amountETHMin,\r\n//             address(this),\r\n//             deadline\r\n//         );\r\n//         TransferHelper.safeTransfer(token, to, amountToken);\r\n//         IWETH(WETH).withdraw(amountETH);\r\n//         TransferHelper.safeTransferETH(to, amountETH);\r\n//     }\r\n//     function removeLiquidityWithPermit(\r\n//         address tokenA,\r\n//         address tokenB,\r\n//         uint liquidity,\r\n//         uint amountAMin,\r\n//         uint amountBMin,\r\n//         address to,\r\n//         uint deadline,\r\n//         bool approveMax, uint8 v, bytes32 r, bytes32 s\r\n//     ) external virtual override returns (uint amountA, uint amountB) {\r\n//         address pair = SherpaswapV2Library.pairFor(factory, tokenA, tokenB);\r\n//         uint value = approveMax ? uint(-1) : liquidity;\r\n//         ISherpaswapV2Pair(pair).permit(msg.sender, address(this), value, deadline, v, r, s);\r\n//         (amountA, amountB) = removeLiquidity(tokenA, tokenB, liquidity, amountAMin, amountBMin, to, deadline);\r\n//     }\r\n//     function removeLiquidityETHWithPermit(\r\n//         address token,\r\n//         uint liquidity,\r\n//         uint amountTokenMin,\r\n//         uint amountETHMin,\r\n//         address to,\r\n//         uint deadline,\r\n//         bool approveMax, uint8 v, bytes32 r, bytes32 s\r\n//     ) external virtual override returns (uint amountToken, uint amountETH) {\r\n//         address pair = SherpaswapV2Library.pairFor(factory, token, WETH);\r\n//         uint value = approveMax ? uint(-1) : liquidity;\r\n//         ISherpaswapV2Pair(pair).permit(msg.sender, address(this), value, deadline, v, r, s);\r\n//         (amountToken, amountETH) = removeLiquidityETH(token, liquidity, amountTokenMin, amountETHMin, to, deadline);\r\n//     }\r\n\r\n//     // **** REMOVE LIQUIDITY (supporting fee-on-transfer tokens) ****\r\n//     function removeLiquidityETHSupportingFeeOnTransferTokens(\r\n//         address token,\r\n//         uint liquidity,\r\n//         uint amountTokenMin,\r\n//         uint amountETHMin,\r\n//         address to,\r\n//         uint deadline\r\n//     ) public virtual override ensure(deadline) returns (uint amountETH) {\r\n//         (, amountETH) = removeLiquidity(\r\n//             token,\r\n//             WETH,\r\n//             liquidity,\r\n//             amountTokenMin,\r\n//             amountETHMin,\r\n//             address(this),\r\n//             deadline\r\n//         );\r\n//         TransferHelper.safeTransfer(token, to, IERC20(token).balanceOf(address(this)));\r\n//         IWETH(WETH).withdraw(amountETH);\r\n//         TransferHelper.safeTransferETH(to, amountETH);\r\n//     }\r\n//     function removeLiquidityETHWithPermitSupportingFeeOnTransferTokens(\r\n//         address token,\r\n//         uint liquidity,\r\n//         uint amountTokenMin,\r\n//         uint amountETHMin,\r\n//         address to,\r\n//         uint deadline,\r\n//         bool approveMax, uint8 v, bytes32 r, bytes32 s\r\n//     ) external virtual override returns (uint amountETH) {\r\n//         address pair = SherpaswapV2Library.pairFor(factory, token, WETH);\r\n//         uint value = approveMax ? uint(-1) : liquidity;\r\n//         ISherpaswapV2Pair(pair).permit(msg.sender, address(this), value, deadline, v, r, s);\r\n//         amountETH = removeLiquidityETHSupportingFeeOnTransferTokens(\r\n//             token, liquidity, amountTokenMin, amountETHMin, to, deadline\r\n//         );\r\n//     }\r\n\r\n//     // **** SWAP ****\r\n//     // requires the initial amount to have already been sent to the first pair\r\n//     function _swap(uint[] memory amounts, address[] memory path, address _to) internal virtual {\r\n//         for (uint i; i < path.length - 1; i++) {\r\n//             (address input, address output) = (path[i], path[i + 1]);\r\n//             (address token0,) = SherpaswapV2Library.sortTokens(input, output);\r\n//             uint amountOut = amounts[i + 1];\r\n//             (uint amount0Out, uint amount1Out) = input == token0 ? (uint(0), amountOut) : (amountOut, uint(0));\r\n//             address to = i < path.length - 2 ? SherpaswapV2Library.pairFor(factory, output, path[i + 2]) : _to;\r\n//             ISherpaswapV2Pair(SherpaswapV2Library.pairFor(factory, input, output)).swap(\r\n//                 amount0Out, amount1Out, to, new bytes(0)\r\n//             );\r\n//         }\r\n//     }\r\n//     function swapExactTokensForTokens(\r\n//         uint amountIn,\r\n//         uint amountOutMin,\r\n//         address[] calldata path,\r\n//         address to,\r\n//         uint deadline\r\n//     ) external virtual override ensure(deadline) returns (uint[] memory amounts) {\r\n//         amounts = SherpaswapV2Library.getAmountsOut(factory, amountIn, path);\r\n//         require(amounts[amounts.length - 1] >= amountOutMin, 'SherpaswapV2Router: INSUFFICIENT_OUTPUT_AMOUNT');\r\n//         TransferHelper.safeTransferFrom(\r\n//             path[0], msg.sender, SherpaswapV2Library.pairFor(factory, path[0], path[1]), amounts[0]\r\n//         );\r\n//         _swap(amounts, path, to);\r\n//     }\r\n//     function swapTokensForExactTokens(\r\n//         uint amountOut,\r\n//         uint amountInMax,\r\n//         address[] calldata path,\r\n//         address to,\r\n//         uint deadline\r\n//     ) external virtual override ensure(deadline) returns (uint[] memory amounts) {\r\n//         amounts = SherpaswapV2Library.getAmountsIn(factory, amountOut, path);\r\n//         require(amounts[0] <= amountInMax, 'SherpaswapV2Router: EXCESSIVE_INPUT_AMOUNT');\r\n//         TransferHelper.safeTransferFrom(\r\n//             path[0], msg.sender, SherpaswapV2Library.pairFor(factory, path[0], path[1]), amounts[0]\r\n//         );\r\n//         _swap(amounts, path, to);\r\n//     }\r\n//     function swapExactETHForTokens(uint amountOutMin, address[] calldata path, address to, uint deadline)\r\n//         external\r\n//         virtual\r\n//         override\r\n//         payable\r\n//         ensure(deadline)\r\n//         returns (uint[] memory amounts)\r\n//     {\r\n//         require(path[0] == WETH, 'SherpaswapV2Router: INVALID_PATH');\r\n//         amounts = SherpaswapV2Library.getAmountsOut(factory, msg.value, path);\r\n//         require(amounts[amounts.length - 1] >= amountOutMin, 'SherpaswapV2Router: INSUFFICIENT_OUTPUT_AMOUNT');\r\n//         IWETH(WETH).deposit{value: amounts[0]}();\r\n//         assert(IWETH(WETH).transfer(SherpaswapV2Library.pairFor(factory, path[0], path[1]), amounts[0]));\r\n//         _swap(amounts, path, to);\r\n//     }\r\n//     function swapTokensForExactETH(uint amountOut, uint amountInMax, address[] calldata path, address to, uint deadline)\r\n//         external\r\n//         virtual\r\n//         override\r\n//         ensure(deadline)\r\n//         returns (uint[] memory amounts)\r\n//     {\r\n//         require(path[path.length - 1] == WETH, 'SherpaswapV2Router: INVALID_PATH');\r\n//         amounts = SherpaswapV2Library.getAmountsIn(factory, amountOut, path);\r\n//         require(amounts[0] <= amountInMax, 'SherpaswapV2Router: EXCESSIVE_INPUT_AMOUNT');\r\n//         TransferHelper.safeTransferFrom(\r\n//             path[0], msg.sender, SherpaswapV2Library.pairFor(factory, path[0], path[1]), amounts[0]\r\n//         );\r\n//         _swap(amounts, path, address(this));\r\n//         IWETH(WETH).withdraw(amounts[amounts.length - 1]);\r\n//         TransferHelper.safeTransferETH(to, amounts[amounts.length - 1]);\r\n//     }\r\n//     function swapExactTokensForETH(uint amountIn, uint amountOutMin, address[] calldata path, address to, uint deadline)\r\n//         external\r\n//         virtual\r\n//         override\r\n//         ensure(deadline)\r\n//         returns (uint[] memory amounts)\r\n//     {\r\n//         require(path[path.length - 1] == WETH, 'SherpaswapV2Router: INVALID_PATH');\r\n//         amounts = SherpaswapV2Library.getAmountsOut(factory, amountIn, path);\r\n//         require(amounts[amounts.length - 1] >= amountOutMin, 'SherpaswapV2Router: INSUFFICIENT_OUTPUT_AMOUNT');\r\n//         TransferHelper.safeTransferFrom(\r\n//             path[0], msg.sender, SherpaswapV2Library.pairFor(factory, path[0], path[1]), amounts[0]\r\n//         );\r\n//         _swap(amounts, path, address(this));\r\n//         IWETH(WETH).withdraw(amounts[amounts.length - 1]);\r\n//         TransferHelper.safeTransferETH(to, amounts[amounts.length - 1]);\r\n//     }\r\n//     function swapETHForExactTokens(uint amountOut, address[] calldata path, address to, uint deadline)\r\n//         external\r\n//         virtual\r\n//         override\r\n//         payable\r\n//         ensure(deadline)\r\n//         returns (uint[] memory amounts)\r\n//     {\r\n//         require(path[0] == WETH, 'SherpaswapV2Router: INVALID_PATH');\r\n//         amounts = SherpaswapV2Library.getAmountsIn(factory, amountOut, path);\r\n//         require(amounts[0] <= msg.value, 'SherpaswapV2Router: EXCESSIVE_INPUT_AMOUNT');\r\n//         IWETH(WETH).deposit{value: amounts[0]}();\r\n//         assert(IWETH(WETH).transfer(SherpaswapV2Library.pairFor(factory, path[0], path[1]), amounts[0]));\r\n//         _swap(amounts, path, to);\r\n//         // refund dust eth, if any\r\n//         if (msg.value > amounts[0]) TransferHelper.safeTransferETH(msg.sender, msg.value - amounts[0]);\r\n//     }\r\n\r\n//     // **** SWAP (supporting fee-on-transfer tokens) ****\r\n//     // requires the initial amount to have already been sent to the first pair\r\n//     function _swapSupportingFeeOnTransferTokens(address[] memory path, address _to) internal virtual {\r\n//         for (uint i; i < path.length - 1; i++) {\r\n//             (address input, address output) = (path[i], path[i + 1]);\r\n//             (address token0,) = SherpaswapV2Library.sortTokens(input, output);\r\n//             ISherpaswapV2Pair pair = ISherpaswapV2Pair(SherpaswapV2Library.pairFor(factory, input, output));\r\n//             uint amountInput;\r\n//             uint amountOutput;\r\n//             { // scope to avoid stack too deep errors\r\n//             (uint reserve0, uint reserve1,) = pair.getReserves();\r\n//             (uint reserveInput, uint reserveOutput) = input == token0 ? (reserve0, reserve1) : (reserve1, reserve0);\r\n//             amountInput = IERC20(input).balanceOf(address(pair)).sub(reserveInput);\r\n//             amountOutput = SherpaswapV2Library.getAmountOut(amountInput, reserveInput, reserveOutput);\r\n//             }\r\n//             (uint amount0Out, uint amount1Out) = input == token0 ? (uint(0), amountOutput) : (amountOutput, uint(0));\r\n//             address to = i < path.length - 2 ? SherpaswapV2Library.pairFor(factory, output, path[i + 2]) : _to;\r\n//             pair.swap(amount0Out, amount1Out, to, new bytes(0));\r\n//         }\r\n//     }\r\n//     function swapExactTokensForTokensSupportingFeeOnTransferTokens(\r\n//         uint amountIn,\r\n//         uint amountOutMin,\r\n//         address[] calldata path,\r\n//         address to,\r\n//         uint deadline\r\n//     ) external virtual override ensure(deadline) {\r\n//         TransferHelper.safeTransferFrom(\r\n//             path[0], msg.sender, SherpaswapV2Library.pairFor(factory, path[0], path[1]), amountIn\r\n//         );\r\n//         uint balanceBefore = IERC20(path[path.length - 1]).balanceOf(to);\r\n//         _swapSupportingFeeOnTransferTokens(path, to);\r\n//         require(\r\n//             IERC20(path[path.length - 1]).balanceOf(to).sub(balanceBefore) >= amountOutMin,\r\n//             'SherpaswapV2Router: INSUFFICIENT_OUTPUT_AMOUNT'\r\n//         );\r\n//     }\r\n//     function swapExactETHForTokensSupportingFeeOnTransferTokens(\r\n//         uint amountOutMin,\r\n//         address[] calldata path,\r\n//         address to,\r\n//         uint deadline\r\n//     )\r\n//         external\r\n//         virtual\r\n//         override\r\n//         payable\r\n//         ensure(deadline)\r\n//     {\r\n//         require(path[0] == WETH, 'SherpaswapV2Router: INVALID_PATH');\r\n//         uint amountIn = msg.value;\r\n//         IWETH(WETH).deposit{value: amountIn}();\r\n//         assert(IWETH(WETH).transfer(SherpaswapV2Library.pairFor(factory, path[0], path[1]), amountIn));\r\n//         uint balanceBefore = IERC20(path[path.length - 1]).balanceOf(to);\r\n//         _swapSupportingFeeOnTransferTokens(path, to);\r\n//         require(\r\n//             IERC20(path[path.length - 1]).balanceOf(to).sub(balanceBefore) >= amountOutMin,\r\n//             'SherpaswapV2Router: INSUFFICIENT_OUTPUT_AMOUNT'\r\n//         );\r\n//     }\r\n//     function swapExactTokensForETHSupportingFeeOnTransferTokens(\r\n//         uint amountIn,\r\n//         uint amountOutMin,\r\n//         address[] calldata path,\r\n//         address to,\r\n//         uint deadline\r\n//     )\r\n//         external\r\n//         virtual\r\n//         override\r\n//         ensure(deadline)\r\n//     {\r\n//         require(path[path.length - 1] == WETH, 'SherpaswapV2Router: INVALID_PATH');\r\n//         TransferHelper.safeTransferFrom(\r\n//             path[0], msg.sender, SherpaswapV2Library.pairFor(factory, path[0], path[1]), amountIn\r\n//         );\r\n//         _swapSupportingFeeOnTransferTokens(path, address(this));\r\n//         uint amountOut = IERC20(WETH).balanceOf(address(this));\r\n//         require(amountOut >= amountOutMin, 'SherpaswapV2Router: INSUFFICIENT_OUTPUT_AMOUNT');\r\n//         IWETH(WETH).withdraw(amountOut);\r\n//         TransferHelper.safeTransferETH(to, amountOut);\r\n//     }\r\n\r\n//     // **** LIBRARY FUNCTIONS ****\r\n//     function quote(uint amountA, uint reserveA, uint reserveB) public pure virtual override returns (uint amountB) {\r\n//         return SherpaswapV2Library.quote(amountA, reserveA, reserveB);\r\n//     }\r\n\r\n//     function getAmountOut(uint amountIn, uint reserveIn, uint reserveOut)\r\n//         public\r\n//         pure\r\n//         virtual\r\n//         override\r\n//         returns (uint amountOut)\r\n//     {\r\n//         return SherpaswapV2Library.getAmountOut(amountIn, reserveIn, reserveOut);\r\n//     }\r\n\r\n//     function getAmountIn(uint amountOut, uint reserveIn, uint reserveOut)\r\n//         public\r\n//         pure\r\n//         virtual\r\n//         override\r\n//         returns (uint amountIn)\r\n//     {\r\n//         return SherpaswapV2Library.getAmountIn(amountOut, reserveIn, reserveOut);\r\n//     }\r\n\r\n//     function getAmountsOut(uint amountIn, address[] memory path)\r\n//         public\r\n//         view\r\n//         virtual\r\n//         override\r\n//         returns (uint[] memory amounts)\r\n//     {\r\n//         return SherpaswapV2Library.getAmountsOut(factory, amountIn, path);\r\n//     }\r\n\r\n//     function getAmountsIn(uint amountOut, address[] memory path)\r\n//         public\r\n//         view\r\n//         virtual\r\n//         override\r\n//         returns (uint[] memory amounts)\r\n//     {\r\n//         return SherpaswapV2Library.getAmountsIn(factory, amountOut, path);\r\n//     }\r\n// }\r\n\r\ncontract FarmingContract  {\r\n    IERC20 public lpToken;\r\n    IERC20 public rewardToken;\r\n    IERC20 public stakingToken; // Token to be staked (e.g., an ERC20 token)\r\n\r\n    ISherpaswapV2Router02 public uniswapRouter;\r\n    address public uniswapPair;\r\n\r\n    uint256 public rewardRate; // e.g., rewards per block\r\n    uint256 public lastUpdateBlock;\r\n    uint256 public rewardPerTokenStored;\r\n\r\n    mapping(address => uint256) public userRewards;\r\n    mapping(address => uint256) public userStaked;\r\n    mapping(address => uint256) public userRewardPerTokenPaid;\r\n\r\n    uint256 public totalStaked;\r\n\r\n    constructor(\r\n        address _lpToken,\r\n        address _rewardToken,\r\n        address _stakingToken,\r\n        address _uniswapRouter,\r\n        uint256 _rewardRate\r\n    ) public {\r\n        lpToken = IERC20(_lpToken);\r\n        rewardToken = IERC20(_rewardToken);\r\n        stakingToken = IERC20(_stakingToken);\r\n        uniswapRouter = ISherpaswapV2Router02(_uniswapRouter);\r\n        rewardRate = _rewardRate;\r\n        lastUpdateBlock = block.number;\r\n\r\n        // Create the Uniswap pair if it doesn't exist\r\n        address _factory = uniswapRouter.factory();\r\n        uniswapPair = ISherpaswapV2Factory(_factory).createPair(address(stakingToken), address(rewardToken));\r\n    }\r\n\r\n    modifier updateReward(address account) {\r\n        rewardPerTokenStored = rewardPerToken();\r\n        lastUpdateBlock = block.number;\r\n        if (account != address(0)) {\r\n            userRewards[account] = earned(account);\r\n            userRewardPerTokenPaid[account] = rewardPerTokenStored;\r\n        }\r\n        _;\r\n    }\r\n\r\n    function rewardPerToken() public view returns (uint256) {\r\n        if (totalStaked == 0) {\r\n            return rewardPerTokenStored;\r\n        }\r\n        return\r\n            rewardPerTokenStored +\r\n            ((block.number - lastUpdateBlock) * rewardRate * 1e18) /\r\n            totalStaked;\r\n    }\r\n\r\n    function earned(address account) public view returns (uint256) {\r\n        return\r\n            (userStaked[account] * (rewardPerToken() - userRewardPerTokenPaid[account])) /\r\n            1e18 +\r\n            userRewards[account];\r\n    }\r\n\r\n    function stake(uint256 amount) external updateReward(msg.sender) {\r\n        totalStaked += amount;\r\n        userStaked[msg.sender] += amount;\r\n        lpToken.transferFrom(msg.sender, address(this), amount);\r\n    }\r\n\r\n    function withdraw(uint256 amount) external updateReward(msg.sender) {\r\n        totalStaked -= amount;\r\n        userStaked[msg.sender] -= amount;\r\n        lpToken.transfer(msg.sender, amount);\r\n    }\r\n\r\n    function claimReward() external updateReward(msg.sender) {\r\n        uint256 reward = userRewards[msg.sender];\r\n        if (reward > 0) {\r\n            userRewards[msg.sender] = 0;\r\n            rewardToken.transfer(msg.sender, reward);\r\n        }\r\n    }\r\n\r\n    function addLiquidity(uint256 tokenAmount, uint256 rewardTokenAmount) external {\r\n        stakingToken.transferFrom(msg.sender, address(this), tokenAmount);\r\n        rewardToken.transferFrom(msg.sender, address(this), rewardTokenAmount);\r\n\r\n        stakingToken.approve(address(uniswapRouter), tokenAmount);\r\n        rewardToken.approve(address(uniswapRouter), rewardTokenAmount);\r\n\r\n        uniswapRouter.addLiquidity(\r\n            address(stakingToken),\r\n            address(rewardToken),\r\n            tokenAmount,\r\n            rewardTokenAmount,\r\n            0,\r\n            0,\r\n            msg.sender,\r\n            block.timestamp\r\n        );\r\n    }\r\n\r\n    function removeLiquidity(uint256 liquidity) external {\r\n        IERC20(uniswapPair).transferFrom(msg.sender, address(this), liquidity);\r\n        IERC20(uniswapPair).approve(address(uniswapRouter), liquidity);\r\n\r\n        uniswapRouter.removeLiquidity(\r\n            address(stakingToken),\r\n            address(rewardToken),\r\n            liquidity,\r\n            0,\r\n            0,\r\n            msg.sender,\r\n            block.timestamp\r\n        );\r\n    }\r\n}\r\n\r\n// a library for performing overflow-safe math, courtesy of DappHub (https://github.com/dapphub/ds-math)\r\n\r\nlibrary SafeMath {\r\n    function add(uint x, uint y) internal pure returns (uint z) {\r\n        require((z = x + y) >= x, 'ds-math-add-overflow');\r\n    }\r\n\r\n    function sub(uint x, uint y) internal pure returns (uint z) {\r\n        require((z = x - y) <= x, 'ds-math-sub-underflow');\r\n    }\r\n\r\n    function mul(uint x, uint y) internal pure returns (uint z) {\r\n        require(y == 0 || (z = x * y) / y == x, 'ds-math-mul-overflow');\r\n    }\r\n}\r\n\r\nlibrary SherpaswapV2Library {\r\n    using SafeMath for uint;\r\n\r\n    // returns sorted token addresses, used to handle return values from pairs sorted in this order\r\n    function sortTokens(address tokenA, address tokenB) internal pure returns (address token0, address token1) {\r\n        require(tokenA != tokenB, 'SherpaswapV2Library: IDENTICAL_ADDRESSES');\r\n        (token0, token1) = tokenA < tokenB ? (tokenA, tokenB) : (tokenB, tokenA);\r\n        require(token0 != address(0), 'SherpaswapV2Library: ZERO_ADDRESS');\r\n    }\r\n\r\n    // calculates the CREATE2 address for a pair without making any external calls\r\n    function pairFor(address factory, address tokenA, address tokenB) internal pure returns (address pair) {\r\n        (address token0, address token1) = sortTokens(tokenA, tokenB);\r\n        pair = address(uint(keccak256(abi.encodePacked(\r\n                hex'ff',\r\n                factory,\r\n                keccak256(abi.encodePacked(token0, token1)),\r\n                hex'e084dfdb8bfc60500f5ce2a7a1d99725e7dc2362205fdada487cc1d0d87d2fbf' // init code hash\r\n            ))));\r\n    }\r\n\r\n    // fetches and sorts the reserves for a pair\r\n    function getReserves(address factory, address tokenA, address tokenB) internal view returns (uint reserveA, uint reserveB) {\r\n        (address token0,) = sortTokens(tokenA, tokenB);\r\n        (uint reserve0, uint reserve1,) = ISherpaswapV2Pair(pairFor(factory, tokenA, tokenB)).getReserves();\r\n        (reserveA, reserveB) = tokenA == token0 ? (reserve0, reserve1) : (reserve1, reserve0);\r\n    }\r\n\r\n    // given some amount of an asset and pair reserves, returns an equivalent amount of the other asset\r\n    function quote(uint amountA, uint reserveA, uint reserveB) internal pure returns (uint amountB) {\r\n        require(amountA > 0, 'SherpaswapV2Library: INSUFFICIENT_AMOUNT');\r\n        require(reserveA > 0 && reserveB > 0, 'SherpaswapV2Library: INSUFFICIENT_LIQUIDITY');\r\n        amountB = amountA.mul(reserveB) / reserveA;\r\n    }\r\n\r\n    // given an input amount of an asset and pair reserves, returns the maximum output amount of the other asset\r\n    function getAmountOut(uint amountIn, uint reserveIn, uint reserveOut) internal pure returns (uint amountOut) {\r\n        require(amountIn > 0, 'SherpaswapV2Library: INSUFFICIENT_INPUT_AMOUNT');\r\n        require(reserveIn > 0 && reserveOut > 0, 'SherpaswapV2Library: INSUFFICIENT_LIQUIDITY');\r\n        uint amountInWithFee = amountIn.mul(997);\r\n        uint numerator = amountInWithFee.mul(reserveOut);\r\n        uint denominator = reserveIn.mul(1000).add(amountInWithFee);\r\n        amountOut = numerator / denominator;\r\n    }\r\n\r\n    // given an output amount of an asset and pair reserves, returns a required input amount of the other asset\r\n    function getAmountIn(uint amountOut, uint reserveIn, uint reserveOut) internal pure returns (uint amountIn) {\r\n        require(amountOut > 0, 'SherpaswapV2Library: INSUFFICIENT_OUTPUT_AMOUNT');\r\n        require(reserveIn > 0 && reserveOut > 0, 'SherpaswapV2Library: INSUFFICIENT_LIQUIDITY');\r\n        uint numerator = reserveIn.mul(amountOut).mul(1000);\r\n        uint denominator = reserveOut.sub(amountOut).mul(997);\r\n        amountIn = (numerator / denominator).add(1);\r\n    }\r\n\r\n    // performs chained getAmountOut calculations on any number of pairs\r\n    function getAmountsOut(address factory, uint amountIn, address[] memory path) internal view returns (uint[] memory amounts) {\r\n        require(path.length >= 2, 'SherpaswapV2Library: INVALID_PATH');\r\n        amounts = new uint[](path.length);\r\n        amounts[0] = amountIn;\r\n        for (uint i; i < path.length - 1; i++) {\r\n            (uint reserveIn, uint reserveOut) = getReserves(factory, path[i], path[i + 1]);\r\n            amounts[i + 1] = getAmountOut(amounts[i], reserveIn, reserveOut);\r\n        }\r\n    }\r\n\r\n    // performs chained getAmountIn calculations on any number of pairs\r\n    function getAmountsIn(address factory, uint amountOut, address[] memory path) internal view returns (uint[] memory amounts) {\r\n        require(path.length >= 2, 'SherpaswapV2Library: INVALID_PATH');\r\n        amounts = new uint[](path.length);\r\n        amounts[amounts.length - 1] = amountOut;\r\n        for (uint i = path.length - 1; i > 0; i--) {\r\n            (uint reserveIn, uint reserveOut) = getReserves(factory, path[i - 1], path[i]);\r\n            amounts[i - 1] = getAmountIn(amounts[i], reserveIn, reserveOut);\r\n        }\r\n    }\r\n}\r\n\r\n// helper methods for interacting with ERC20 tokens and sending ETH that do not consistently return true/false\r\nlibrary TransferHelper {\r\n    function safeApprove(address token, address to, uint value) internal {\r\n        // bytes4(keccak256(bytes('approve(address,uint256)')));\r\n        (bool success, bytes memory data) = token.call(abi.encodeWithSelector(0x095ea7b3, to, value));\r\n        require(success && (data.length == 0 || abi.decode(data, (bool))), 'TransferHelper: APPROVE_FAILED');\r\n    }\r\n\r\n    function safeTransfer(address token, address to, uint value) internal {\r\n        // bytes4(keccak256(bytes('transfer(address,uint256)')));\r\n        (bool success, bytes memory data) = token.call(abi.encodeWithSelector(0xa9059cbb, to, value));\r\n        require(success && (data.length == 0 || abi.decode(data, (bool))), 'TransferHelper: TRANSFER_FAILED');\r\n    }\r\n\r\n    function safeTransferFrom(address token, address from, address to, uint value) internal {\r\n        // bytes4(keccak256(bytes('transferFrom(address,address,uint256)')));\r\n        (bool success, bytes memory data) = token.call(abi.encodeWithSelector(0x23b872dd, from, to, value));\r\n        require(success && (data.length == 0 || abi.decode(data, (bool))), 'TransferHelper: TRANSFER_FROM_FAILED');\r\n    }\r\n\r\n    function safeTransferETH(address to, uint value) internal {\r\n        (bool success,) = to.call{value:value}(new bytes(0));\r\n        require(success, 'TransferHelper: ETH_TRANSFER_FAILED');\r\n    }\r\n}",
  "sourcePath": "F:\\soldity\\709\\Router\\contracts\\SherpaswapRouter.sol",
  "compiler": {
    "name": "solc",
    "version": "0.6.6+commit.6c089d02.Emscripten.clang"
  },
  "schemaVersion": "3.4.16",
  "updatedAt": "2024-07-22T13:27:36.209Z",
  "devdoc": {
    "methods": {}
  },
  "userdoc": {
    "methods": {}
  }
}